S01700004763634170706C69636174696F6E312E737265635B
S113000019C033C032C061C130C02FC02EC02EC051
S11300102CC02BC02AC029C028C027C0BDC0E2C044
S113002024C023C022C021C020C01FC01EC01DC0C8
S11300301CC01BC011241FBECFEFD2E0DEBFCDBF5A
S113004011E0A0E0B1E0E2EDF5E002C005900D9210
S1130050A230B107D9F721E0A2E0B1E001C01D92BE
S1130060AB30B207E1F759D2B2C2CACF1F920F9296
S11300700FB60F9211248F939F9380910501909155
S11300800601019690930601809305018091050174
S113009090910601CC9751F510920601109205013A
S11300A08091070190910801019690930801809333
S11300B007018091070190910801CC97B9F410923F
S11300C00801109207018091090190910A0101969B
S11300D090930A01809309018091090190910A018A
S11300E0489721F410920A01109209018BB18058AB
S11300F08BB99F918F910F900FBE0F901F90189501
S1130100EEE6F0E080818660808385B5836085BDFE
S1130110809100018B3024F08AE08093000107C0B5
S1130120809100018D3F1CF483E080930001809155
S11301300001843024F083E08093000107C08091A3
S113014000018D3F1CF483E0809300018091000145
S113015092E3899F802D1124825887BD80910001EC
S11301609EEC899F802D1124825888BD089580912A
S1130170090190910A0188B980910201882331F024
S113018080910501909106018BB908958091070132
S1130190909108018BB908951F920F920FB60F9298
S11301A011242F933F934F935F936F937F938F9378
S11301B09F93AF93BF93EF93FF93D9DFFF91EF9199
S11301C0BF91AF919F918F917F916F915F914F916B
S11301D03F912F910F900FBE0F901F9018951BB851
S11301E018B808951F920F920FB60F9211242F93EF
S11301F03F934F935F936F937F938F939F93AF93AB
S1130200BF93EF93FF93EBDFFF91EF91BF91AF911A
S11302109F918F917F916F915F914F913F912F911A
S11302200F900FBE0F901F901895E6EBF0E08081C1
S113023080628083E0EBF0E0808182608083E1EB88
S1130240F0E08081856080838FEF8093B300E0E7E6
S1130250F0E0808182608083089584B1887F84B9CE
S113026085B1876085B9EBE6F0E0808187608083A3
S1130270E8E6F0E080818160808308958AB18F632D
S11302808AB987B18F6187B98BB18F738BB988B104
S11302908F7188B9579A8BB180788BB90895609122
S11302A005017091060180E090E06CD16091070136
S11302B07091080182E090E065D16091090170912C
S11302C00A0184E090E05ED108951F920F920FB668
S11302D00F9211242F933F934F935F936F937F93C8
S11302E08F939F93AF93BF93EF93FF9387EA91E626
S11302F00197F1F700C0000083B18770863049F0A0
S113030083B18770853029F083B18770833009F019
S113031045C0189916C080910401811112C08091C2
S1130320030181110EC08FE493EC0197F1F700C033
S11303300000189BFECF8091000183508093000140
S1130340DFDE199913C08091030181110FC08FE47E
S113035093EC0197F1F700C00000199BFECF909138
S1130360040181E0911180E0809304011A9968C02E
S11303708FE493EC0197F1F700C000001A9BFECFC5
S11303809091030181E0911180E0809303018091B9
S11303900301882309F454C082DF52C083B18370FF
S11303A089F48FE493EC0197F1F700C0000083B166
S11303B08370E9F39091020181E0911180E08093D0
S11303C002019EDE83B18670E1F48FE493EC019721
S11303D0F1F700C0000083B18670E9F38091070152
S11303E090910801019690930801809307018091F0
S11303F0070190910801CC9721F410920801109202
S1130400070183B18570E1F48FE493EC0197F1F770
S113041000C0000083B18570E9F3809109019091D7
S11304200A01019690930A018093090180910901C0
S113043090910A01489721F410920A01109209013F
S1130440FF91EF91BF91AF919F918F917F916F91A8
S11304505F914F913F912F910F900FBE0F901F907E
S11304601895CF9380E090E089D0AC019C01A9E875
S1130470B8E878D096958795929582958F7089275C
S11304809F708927CCE3C89F9001C99F300D112428
S1130490CA01821B930B909306018093050182E0AD
S11304A090E06CD0AC019C01A9E8B8E85BD09695CB
S11304B08795929582958F7089279F708927C89F09
S11304C09001C99F300D1124CA01821B930B909394
S11304D008018093070184E090E050D0AC019C01B6
S11304E0ABEABAEA3FD0929582958F7089279F70C4
S11304F089279C01220F331F820F931F880F991F96
S1130500880F991F880F991F9A01281B390B309364
S11305100A0120930901CF910895A3DFAFDE9DDE88
S1130520EFDD83DE789480910301882349F083B75B
S1130530817F846083BF83B7816083BF8895F3CF55
S113054080910401882349F083B7817F866083BF4B
S113055083B7816083BF8895E6CF83B78E7F83BFDF
S1130560CFDDE1CFA29FB001B39FC001A39F01D013
S1130570B29F700D811D1124911D0895A8E1B0E072
S113058042E006C00196272F11D00FC0DC01862F50
S1130590E82FF999FECF12BC05C0E1BDF89AE395A6
S11305A000B40D924150C8F70895262FF999FECF53
S11305B012BC81BDF89A815000B4021639F01FBAFA
S11305C020BD0FB6F894FA9AF99A0FBE0895F894DC
S10505D0FFCF57
S10505D2030020
S9030000FC
